{
  "_format": "hh-sol-artifact-1",
  "contractName": "Recipient",
  "sourceName": "contracts/Recipient.sol",
  "abi": [
    {
      "inputs": [
        {
          "internalType": "address",
          "name": "trustedForwarder",
          "type": "address"
        }
      ],
      "stateMutability": "nonpayable",
      "type": "constructor"
    },
    {
      "anonymous": false,
      "inputs": [
        {
          "indexed": true,
          "internalType": "address",
          "name": "from",
          "type": "address"
        },
        {
          "indexed": false,
          "internalType": "string",
          "name": "message",
          "type": "string"
        }
      ],
      "name": "MessagePersisted",
      "type": "event"
    },
    {
      "inputs": [
        {
          "internalType": "string",
          "name": "message",
          "type": "string"
        }
      ],
      "name": "addNewMessage",
      "outputs": [],
      "stateMutability": "nonpayable",
      "type": "function"
    },
    {
      "inputs": [
        {
          "internalType": "address",
          "name": "",
          "type": "address"
        }
      ],
      "name": "addressToMessage",
      "outputs": [
        {
          "internalType": "string",
          "name": "",
          "type": "string"
        }
      ],
      "stateMutability": "view",
      "type": "function"
    }
  ],
  "bytecode": "0x60a060405234801561001057600080fd5b50604051610759380380610759833981810160405281019061003291906100cf565b8073ffffffffffffffffffffffffffffffffffffffff1660808173ffffffffffffffffffffffffffffffffffffffff1681525050506100fc565b600080fd5b600073ffffffffffffffffffffffffffffffffffffffff82169050919050565b600061009c82610071565b9050919050565b6100ac81610091565b81146100b757600080fd5b50565b6000815190506100c9816100a3565b92915050565b6000602082840312156100e5576100e461006c565b5b60006100f3848285016100ba565b91505092915050565b608051610642610117600039600061012901526106426000f3fe608060405234801561001057600080fd5b50600436106100365760003560e01c806346fc95d11461003b578063adb59e761461006b575b600080fd5b61005560048036038101906100509190610345565b610087565b604051610062919061040b565b60405180910390f35b61008560048036038101906100809190610562565b610127565b005b600060205280600052604060002060009150905080546100a6906105da565b80601f01602080910402602001604051908101604052809291908181526020018280546100d2906105da565b801561011f5780601f106100f45761010080835404028352916020019161011f565b820191906000526020600020905b81548152906001019060200180831161010257829003601f168201915b505050505081565b7f000000000000000000000000000000000000000000000000000000000000000073ffffffffffffffffffffffffffffffffffffffff163373ffffffffffffffffffffffffffffffffffffffff161461017f57600080fd5b6000601436033560601c9050816000808373ffffffffffffffffffffffffffffffffffffffff1673ffffffffffffffffffffffffffffffffffffffff16815260200190815260200160002090805190602001906101dd929190610230565b508073ffffffffffffffffffffffffffffffffffffffff167ff2e2264681645dddc22efcd0fdd5de6197bae757244eca0f5a7fd161ac16473b83604051610224919061040b565b60405180910390a25050565b82805461023c906105da565b90600052602060002090601f01602090048101928261025e57600085556102a5565b82601f1061027757805160ff19168380011785556102a5565b828001600101855582156102a5579182015b828111156102a4578251825591602001919060010190610289565b5b5090506102b291906102b6565b5090565b5b808211156102cf5760008160009055506001016102b7565b5090565b6000604051905090565b600080fd5b600080fd5b600073ffffffffffffffffffffffffffffffffffffffff82169050919050565b6000610312826102e7565b9050919050565b61032281610307565b811461032d57600080fd5b50565b60008135905061033f81610319565b92915050565b60006020828403121561035b5761035a6102dd565b5b600061036984828501610330565b91505092915050565b600081519050919050565b600082825260208201905092915050565b60005b838110156103ac578082015181840152602081019050610391565b838111156103bb576000848401525b50505050565b6000601f19601f8301169050919050565b60006103dd82610372565b6103e7818561037d565b93506103f781856020860161038e565b610400816103c1565b840191505092915050565b6000602082019050818103600083015261042581846103d2565b905092915050565b600080fd5b600080fd5b7f4e487b7100000000000000000000000000000000000000000000000000000000600052604160045260246000fd5b61046f826103c1565b810181811067ffffffffffffffff8211171561048e5761048d610437565b5b80604052505050565b60006104a16102d3565b90506104ad8282610466565b919050565b600067ffffffffffffffff8211156104cd576104cc610437565b5b6104d6826103c1565b9050602081019050919050565b82818337600083830152505050565b6000610505610500846104b2565b610497565b90508281526020810184848401111561052157610520610432565b5b61052c8482856104e3565b509392505050565b600082601f8301126105495761054861042d565b5b81356105598482602086016104f2565b91505092915050565b600060208284031215610578576105776102dd565b5b600082013567ffffffffffffffff811115610596576105956102e2565b5b6105a284828501610534565b91505092915050565b7f4e487b7100000000000000000000000000000000000000000000000000000000600052602260045260246000fd5b600060028204905060018216806105f257607f821691505b60208210811415610606576106056105ab565b5b5091905056fea264697066735822122032133d84c2361d0ac1636c2e0edee58d898546d07b5dca01790497c08a04540364736f6c63430008090033",
  "linkReferences": {},
  "deployedLinkReferences": {}
}